{
  "_format": "hh-sol-artifact-1",
  "contractName": "TestContract",
  "sourceName": "contracts/TestContract.sol",
  "abi": [
    {
      "inputs": [
        {
          "internalType": "string",
          "name": "_message",
          "type": "string"
        }
      ],
      "stateMutability": "nonpayable",
      "type": "constructor"
    },
    {
      "anonymous": false,
      "inputs": [
        {
          "indexed": true,
          "internalType": "address",
          "name": "previousOwner",
          "type": "address"
        },
        {
          "indexed": true,
          "internalType": "address",
          "name": "newOwner",
          "type": "address"
        }
      ],
      "name": "OwnershipTransferred",
      "type": "event"
    },
    {
      "inputs": [],
      "name": "message",
      "outputs": [
        {
          "internalType": "string",
          "name": "",
          "type": "string"
        }
      ],
      "stateMutability": "view",
      "type": "function"
    },
    {
      "inputs": [],
      "name": "owner",
      "outputs": [
        {
          "internalType": "address",
          "name": "",
          "type": "address"
        }
      ],
      "stateMutability": "view",
      "type": "function"
    },
    {
      "inputs": [],
      "name": "renounceOwnership",
      "outputs": [],
      "stateMutability": "nonpayable",
      "type": "function"
    },
    {
      "inputs": [
        {
          "internalType": "string",
          "name": "_message",
          "type": "string"
        }
      ],
      "name": "setMessage",
      "outputs": [],
      "stateMutability": "nonpayable",
      "type": "function"
    },
    {
      "inputs": [
        {
          "internalType": "address",
          "name": "newOwner",
          "type": "address"
        }
      ],
      "name": "transferOwnership",
      "outputs": [],
      "stateMutability": "nonpayable",
      "type": "function"
    }
  ],
  "bytecode": "0x608060405234801561001057600080fd5b506040516107ad3803806107ad83398101604081905261002f91610151565b61003833610052565b805161004b9060019060208401906100a2565b505061025a565b600080546001600160a01b038381166001600160a01b0319831681178455604051919092169283917f8be0079c531659141344cd1fd0a4f28419497f9722a3daafe3b4186f6b6457e09190a35050565b8280546100ae90610220565b90600052602060002090601f0160209004810192826100d05760008555610116565b82601f106100e957805160ff1916838001178555610116565b82800160010185558215610116579182015b828111156101165782518255916020019190600101906100fb565b50610122929150610126565b5090565b5b808211156101225760008155600101610127565b634e487b7160e01b600052604160045260246000fd5b6000602080838503121561016457600080fd5b82516001600160401b038082111561017b57600080fd5b818501915085601f83011261018f57600080fd5b8151818111156101a1576101a161013b565b604051601f8201601f19908116603f011681019083821181831017156101c9576101c961013b565b8160405282815288868487010111156101e157600080fd5b600093505b8284101561020357848401860151818501870152928501926101e6565b828411156102145760008684830101525b98975050505050505050565b600181811c9082168061023457607f821691505b60208210810361025457634e487b7160e01b600052602260045260246000fd5b50919050565b610544806102696000396000f3fe608060405234801561001057600080fd5b50600436106100575760003560e01c8063368b87721461005c578063715018a6146100715780638da5cb5b14610079578063e21f37ce14610099578063f2fde38b146100ae575b600080fd5b61006f61006a366004610369565b6100c1565b005b61006f61010b565b6000546040516001600160a01b0390911681526020015b60405180910390f35b6100a1610141565b604051610090919061041a565b61006f6100bc36600461046f565b6101cf565b6000546001600160a01b031633146100f45760405162461bcd60e51b81526004016100eb9061049f565b60405180910390fd5b80516101079060019060208401906102ba565b5050565b6000546001600160a01b031633146101355760405162461bcd60e51b81526004016100eb9061049f565b61013f600061026a565b565b6001805461014e906104d4565b80601f016020809104026020016040519081016040528092919081815260200182805461017a906104d4565b80156101c75780601f1061019c576101008083540402835291602001916101c7565b820191906000526020600020905b8154815290600101906020018083116101aa57829003601f168201915b505050505081565b6000546001600160a01b031633146101f95760405162461bcd60e51b81526004016100eb9061049f565b6001600160a01b03811661025e5760405162461bcd60e51b815260206004820152602660248201527f4f776e61626c653a206e6577206f776e657220697320746865207a65726f206160448201526564647265737360d01b60648201526084016100eb565b6102678161026a565b50565b600080546001600160a01b038381166001600160a01b0319831681178455604051919092169283917f8be0079c531659141344cd1fd0a4f28419497f9722a3daafe3b4186f6b6457e09190a35050565b8280546102c6906104d4565b90600052602060002090601f0160209004810192826102e8576000855561032e565b82601f1061030157805160ff191683800117855561032e565b8280016001018555821561032e579182015b8281111561032e578251825591602001919060010190610313565b5061033a92915061033e565b5090565b5b8082111561033a576000815560010161033f565b634e487b7160e01b600052604160045260246000fd5b60006020828403121561037b57600080fd5b813567ffffffffffffffff8082111561039357600080fd5b818401915084601f8301126103a757600080fd5b8135818111156103b9576103b9610353565b604051601f8201601f19908116603f011681019083821181831017156103e1576103e1610353565b816040528281528760208487010111156103fa57600080fd5b826020860160208301376000928101602001929092525095945050505050565b600060208083528351808285015260005b818110156104475785810183015185820160400152820161042b565b81811115610459576000604083870101525b50601f01601f1916929092016040019392505050565b60006020828403121561048157600080fd5b81356001600160a01b038116811461049857600080fd5b9392505050565b6020808252818101527f4f776e61626c653a2063616c6c6572206973206e6f7420746865206f776e6572604082015260600190565b600181811c908216806104e857607f821691505b60208210810361050857634e487b7160e01b600052602260045260246000fd5b5091905056fea264697066735822122060d472f216f36ab381c974e77772f94d54938bf284ca7f975ab1702ce983454664736f6c634300080d0033",
  "linkReferences": {},
  "deployedLinkReferences": {}
}