{
  "_format": "hh-sol-artifact-1",
  "contractName": "MultiSig",
  "sourceName": "contracts/MultiSig.sol",
  "abi": [
    {
      "inputs": [
        {
          "internalType": "address[]",
          "name": "_owners",
          "type": "address[]"
        },
        {
          "internalType": "uint256",
          "name": "_votesRequired",
          "type": "uint256"
        }
      ],
      "stateMutability": "nonpayable",
      "type": "constructor"
    },
    {
      "anonymous": false,
      "inputs": [
        {
          "indexed": true,
          "internalType": "address",
          "name": "owner",
          "type": "address"
        },
        {
          "indexed": true,
          "internalType": "uint256",
          "name": "txID",
          "type": "uint256"
        }
      ],
      "name": "ApproveTransaction",
      "type": "event"
    },
    {
      "anonymous": false,
      "inputs": [
        {
          "indexed": true,
          "internalType": "address",
          "name": "sender",
          "type": "address"
        },
        {
          "indexed": false,
          "internalType": "uint256",
          "name": "depositAmount",
          "type": "uint256"
        },
        {
          "indexed": false,
          "internalType": "uint256",
          "name": "contractBalance",
          "type": "uint256"
        }
      ],
      "name": "Deposit",
      "type": "event"
    },
    {
      "anonymous": false,
      "inputs": [
        {
          "indexed": true,
          "internalType": "address",
          "name": "owner",
          "type": "address"
        },
        {
          "indexed": true,
          "internalType": "uint256",
          "name": "txID",
          "type": "uint256"
        }
      ],
      "name": "ExecuteTransaction",
      "type": "event"
    },
    {
      "anonymous": false,
      "inputs": [
        {
          "indexed": true,
          "internalType": "address",
          "name": "owner",
          "type": "address"
        },
        {
          "indexed": true,
          "internalType": "uint256",
          "name": "txIndex",
          "type": "uint256"
        },
        {
          "indexed": true,
          "internalType": "address",
          "name": "to",
          "type": "address"
        },
        {
          "indexed": false,
          "internalType": "uint256",
          "name": "value",
          "type": "uint256"
        },
        {
          "indexed": false,
          "internalType": "bytes",
          "name": "data",
          "type": "bytes"
        }
      ],
      "name": "SubmitTransaction",
      "type": "event"
    },
    {
      "inputs": [
        {
          "internalType": "uint256",
          "name": "_txID",
          "type": "uint256"
        }
      ],
      "name": "approveTransaction",
      "outputs": [],
      "stateMutability": "nonpayable",
      "type": "function"
    },
    {
      "inputs": [],
      "name": "deposit",
      "outputs": [],
      "stateMutability": "payable",
      "type": "function"
    },
    {
      "inputs": [
        {
          "internalType": "uint256",
          "name": "_txID",
          "type": "uint256"
        }
      ],
      "name": "executeTransaction",
      "outputs": [],
      "stateMutability": "nonpayable",
      "type": "function"
    },
    {
      "inputs": [
        {
          "internalType": "address",
          "name": "",
          "type": "address"
        }
      ],
      "name": "isOwner",
      "outputs": [
        {
          "internalType": "bool",
          "name": "",
          "type": "bool"
        }
      ],
      "stateMutability": "view",
      "type": "function"
    },
    {
      "inputs": [
        {
          "internalType": "uint256",
          "name": "",
          "type": "uint256"
        },
        {
          "internalType": "address",
          "name": "",
          "type": "address"
        }
      ],
      "name": "ownerApproved",
      "outputs": [
        {
          "internalType": "bool",
          "name": "",
          "type": "bool"
        }
      ],
      "stateMutability": "view",
      "type": "function"
    },
    {
      "inputs": [
        {
          "internalType": "uint256",
          "name": "",
          "type": "uint256"
        }
      ],
      "name": "owners",
      "outputs": [
        {
          "internalType": "address",
          "name": "",
          "type": "address"
        }
      ],
      "stateMutability": "view",
      "type": "function"
    },
    {
      "inputs": [
        {
          "internalType": "address",
          "name": "_to",
          "type": "address"
        },
        {
          "internalType": "uint256",
          "name": "_value",
          "type": "uint256"
        },
        {
          "internalType": "bytes",
          "name": "_data",
          "type": "bytes"
        }
      ],
      "name": "submitTransaction",
      "outputs": [],
      "stateMutability": "nonpayable",
      "type": "function"
    },
    {
      "inputs": [
        {
          "internalType": "uint256",
          "name": "",
          "type": "uint256"
        }
      ],
      "name": "transactionHistory",
      "outputs": [
        {
          "internalType": "address",
          "name": "to",
          "type": "address"
        },
        {
          "internalType": "uint256",
          "name": "value",
          "type": "uint256"
        },
        {
          "internalType": "bytes",
          "name": "data",
          "type": "bytes"
        },
        {
          "internalType": "bool",
          "name": "executed",
          "type": "bool"
        },
        {
          "internalType": "uint256",
          "name": "numConfirmations",
          "type": "uint256"
        }
      ],
      "stateMutability": "view",
      "type": "function"
    },
    {
      "inputs": [],
      "name": "votesRequired",
      "outputs": [
        {
          "internalType": "uint256",
          "name": "",
          "type": "uint256"
        }
      ],
      "stateMutability": "view",
      "type": "function"
    },
    {
      "stateMutability": "payable",
      "type": "receive"
    }
  ],
  "bytecode": "0x60806040523480156200001157600080fd5b50604051620011b0380380620011b08339810160408190526200003491620002ab565b60008251116200009a5760405162461bcd60e51b815260206004820152602660248201527f4d756c7469736967206d7573742068617665206174206c65617374206f6e65206044820152656f776e65722160d01b60648201526084015b60405180910390fd5b600081118015620000ac575081518111155b6200010b5760405162461bcd60e51b815260206004820152602860248201527f496e76616c6964206e756d626572206f6620726571756972656420636f6e6669604482015267726d6174696f6e7360c01b606482015260840162000091565b60005b82518110156200026d5760008382815181106200012f576200012f62000385565b6020026020010151905060006001600160a01b0316816001600160a01b0316036200018d5760405162461bcd60e51b815260206004820152600d60248201526c24b73b30b634b21037bbb732b960991b604482015260640162000091565b6001600160a01b03811660009081526001602052604090205460ff1615620001f85760405162461bcd60e51b815260206004820152601560248201527f4f776e657220616c726561647920657869737473210000000000000000000000604482015260640162000091565b6001600160a01b031660008181526001602081905260408220805460ff191682179055815490810182559080527f290decd9548b62a8d60345a988386fc84ba6bc95484008f6362f93160ef3e5630180546001600160a01b03191690911790558062000264816200039b565b9150506200010e565b5060025550620003c3565b634e487b7160e01b600052604160045260246000fd5b80516001600160a01b0381168114620002a657600080fd5b919050565b60008060408385031215620002bf57600080fd5b82516001600160401b0380821115620002d757600080fd5b818501915085601f830112620002ec57600080fd5b815160208282111562000303576200030362000278565b8160051b604051601f19603f830116810181811086821117156200032b576200032b62000278565b6040529283528183019350848101820192898411156200034a57600080fd5b948201945b83861015620003735762000363866200028e565b855294820194938201936200034f565b97909101519698969750505050505050565b634e487b7160e01b600052603260045260246000fd5b600060018201620003bc57634e487b7160e01b600052601160045260246000fd5b5060010190565b610ddd80620003d36000396000f3fe60806040526004361061008a5760003560e01c8063243e7a8711610059578063243e7a871461019e5780632f54bf6e146101cf578063c6427474146101ff578063d0e30db01461019c578063ee22610b1461021f57600080fd5b8063025e7c27146100d0578063089d144c1461010d5780630c2891b714610158578063242232d11461017c57600080fd5b366100cb576040805134815247602082015233917f90890809c654f11d6e72a28fa60149770a0d11ec6c92319d6ceb2bb0a4ea1a15910160405180910390a2005b600080fd5b3480156100dc57600080fd5b506100f06100eb366004610a9b565b61023f565b6040516001600160a01b0390911681526020015b60405180910390f35b34801561011957600080fd5b50610148610128366004610ad0565b600360209081526000928352604080842090915290825290205460ff1681565b6040519015158152602001610104565b34801561016457600080fd5b5061016e60025481565b604051908152602001610104565b34801561018857600080fd5b5061019c610197366004610a9b565b610269565b005b3480156101aa57600080fd5b506101be6101b9366004610a9b565b61044f565b604051610104959493929190610afc565b3480156101db57600080fd5b506101486101ea366004610b7f565b60016020526000908152604090205460ff1681565b34801561020b57600080fd5b5061019c61021a366004610ba1565b610528565b34801561022b57600080fd5b5061019c61023a366004610a9b565b6106cd565b6000818154811061024f57600080fd5b6000918252602090912001546001600160a01b0316905081565b3360009081526001602052604090205460ff166102c75760405162461bcd60e51b815260206004820152601760248201527643616c6c6572206973206e6f7420616e206f776e65722160481b60448201526064015b60405180910390fd5b6004548190811061031a5760405162461bcd60e51b815260206004820152601a60248201527f5472616e73616374696f6e20646f6573206e6f7420657869737400000000000060448201526064016102be565b6000828152600360209081526040808320338452909152902054829060ff16156103865760405162461bcd60e51b815260206004820152601d60248201527f5472616e73616374696f6e20616c726561647920617070726f7665642100000060448201526064016102be565b826004818154811061039a5761039a610c28565b600091825260209091206003600590920201015460ff16156103fe5760405162461bcd60e51b815260206004820152601d60248201527f5472616e73616374696f6e20616c72656164792065786563757465642100000060448201526064016102be565b6000848152600360209081526040808320338085529252808320805460ff191660011790555186927ffa624aadd8a0eae4ee975eae5cf13c9803b361b7fa2d832427db6207c088219391a350505050565b6004818154811061045f57600080fd5b60009182526020909120600590910201805460018201546002830180546001600160a01b03909316945090929161049590610c3e565b80601f01602080910402602001604051908101604052809291908181526020018280546104c190610c3e565b801561050e5780601f106104e35761010080835404028352916020019161050e565b820191906000526020600020905b8154815290600101906020018083116104f157829003601f168201915b505050506003830154600490930154919260ff1691905085565b3360009081526001602052604090205460ff166105815760405162461bcd60e51b815260206004820152601760248201527643616c6c6572206973206e6f7420616e206f776e65722160481b60448201526064016102be565b60046040518060a00160405280866001600160a01b0316815260200185815260200184848080601f01602080910402602001604051908101604052809392919081815260200183838082843760009201829052509385525050506020808301829052604092830182905284546001808201875595835291819020845160059093020180546001600160a01b0319166001600160a01b039093169290921782558381015194820194909455908201518051929391926106459260028501920190610a02565b50606082015160038201805460ff1916911515919091179055608090910151600491820155546001600160a01b0385169061068290600190610c8e565b336001600160a01b03167fd5a05bf70715ad82a09a756320284a1b54c9ff74cd0f8cce6219e79b563fe59d8686866040516106bf93929190610ca5565b60405180910390a450505050565b600454819081106107205760405162461bcd60e51b815260206004820152601a60248201527f5472616e73616374696f6e20646f6573206e6f7420657869737400000000000060448201526064016102be565b6000828152600360209081526040808320338452909152902054829060ff161561078c5760405162461bcd60e51b815260206004820152601d60248201527f5472616e73616374696f6e20616c726561647920617070726f7665642100000060448201526064016102be565b82600481815481106107a0576107a0610c28565b600091825260209091206003600590920201015460ff16156108045760405162461bcd60e51b815260206004820152601d60248201527f5472616e73616374696f6e20616c72656164792065786563757465642100000060448201526064016102be565b60025461081085610979565b101561085e5760405162461bcd60e51b815260206004820181905260248201527f496e73756666696369656e74206e756d626572206f6620617070726f76616c7360448201526064016102be565b60006004858154811061087357610873610c28565b6000918252602082206003600590920201908101805460ff191660019081179091558154908201546040519294506001600160a01b03909116916108bb906002860190610cdb565b60006040518083038185875af1925050503d80600081146108f8576040519150601f19603f3d011682016040523d82523d6000602084013e6108fd565b606091505b50509050806109445760405162461bcd60e51b81526020600482015260136024820152725472616e73616374696f6e206661696c65642160681b60448201526064016102be565b604051869033907f5445f318f4f5fcfb66592e68e0cc5822aa15664039bd5f0ffde24c5a8142b1ac90600090a3505050505050565b60008054815b818110156109fb576003600085815260200190815260200160002060008083815481106109ae576109ae610c28565b60009182526020808320909101546001600160a01b0316835282019290925260400190205460ff16156109e9576109e6600184610d76565b92505b806109f381610d8e565b91505061097f565b5050919050565b828054610a0e90610c3e565b90600052602060002090601f016020900481019282610a305760008555610a76565b82601f10610a4957805160ff1916838001178555610a76565b82800160010185558215610a76579182015b82811115610a76578251825591602001919060010190610a5b565b50610a82929150610a86565b5090565b5b80821115610a825760008155600101610a87565b600060208284031215610aad57600080fd5b5035919050565b80356001600160a01b0381168114610acb57600080fd5b919050565b60008060408385031215610ae357600080fd5b82359150610af360208401610ab4565b90509250929050565b60018060a01b038616815260006020868184015260a0604084015285518060a085015260005b81811015610b3e5787810183015185820160c001528201610b22565b81811115610b5057600060c083870101525b50601f01601f1916830160c0019150610b6f9050606083018515159052565b8260808301529695505050505050565b600060208284031215610b9157600080fd5b610b9a82610ab4565b9392505050565b60008060008060608587031215610bb757600080fd5b610bc085610ab4565b935060208501359250604085013567ffffffffffffffff80821115610be457600080fd5b818701915087601f830112610bf857600080fd5b813581811115610c0757600080fd5b886020828501011115610c1957600080fd5b95989497505060200194505050565b634e487b7160e01b600052603260045260246000fd5b600181811c90821680610c5257607f821691505b602082108103610c7257634e487b7160e01b600052602260045260246000fd5b50919050565b634e487b7160e01b600052601160045260246000fd5b600082821015610ca057610ca0610c78565b500390565b83815260406020820152816040820152818360608301376000818301606090810191909152601f909201601f1916010192915050565b600080835481600182811c915080831680610cf757607f831692505b60208084108203610d1657634e487b7160e01b86526022600452602486fd5b818015610d2a5760018114610d3b57610d68565b60ff19861689528489019650610d68565b60008a81526020902060005b86811015610d605781548b820152908501908301610d47565b505084890196505b509498975050505050505050565b60008219821115610d8957610d89610c78565b500190565b600060018201610da057610da0610c78565b506001019056fea2646970667358221220fe7f6a3f8dadce2a5cfa8956fdf7fc7c8875e0f73b93aa79adc6d30c1c1c1cf564736f6c634300080d0033",
  "linkReferences": {},
  "deployedLinkReferences": {}
}