{
  "_format": "hh-sol-artifact-1",
  "contractName": "MultiSig",
  "sourceName": "contracts/MultiSig.sol",
  "abi": [
    {
      "inputs": [
        {
          "internalType": "address[]",
          "name": "_owners",
          "type": "address[]"
        },
        {
          "internalType": "uint256",
          "name": "_votesRequired",
          "type": "uint256"
        }
      ],
      "stateMutability": "nonpayable",
      "type": "constructor"
    },
    {
      "anonymous": false,
      "inputs": [
        {
          "indexed": true,
          "internalType": "uint256",
          "name": "txID",
          "type": "uint256"
        }
      ],
      "name": "ExecuteTransaction",
      "type": "event"
    },
    {
      "inputs": [
        {
          "internalType": "uint256",
          "name": "_txID",
          "type": "uint256"
        }
      ],
      "name": "approveTransaction",
      "outputs": [],
      "stateMutability": "nonpayable",
      "type": "function"
    },
    {
      "inputs": [],
      "name": "deposit",
      "outputs": [],
      "stateMutability": "payable",
      "type": "function"
    },
    {
      "inputs": [
        {
          "internalType": "uint256",
          "name": "_txID",
          "type": "uint256"
        }
      ],
      "name": "executeTransaction",
      "outputs": [],
      "stateMutability": "nonpayable",
      "type": "function"
    },
    {
      "inputs": [
        {
          "internalType": "address",
          "name": "",
          "type": "address"
        }
      ],
      "name": "isOwner",
      "outputs": [
        {
          "internalType": "bool",
          "name": "",
          "type": "bool"
        }
      ],
      "stateMutability": "view",
      "type": "function"
    },
    {
      "inputs": [
        {
          "internalType": "uint256",
          "name": "",
          "type": "uint256"
        },
        {
          "internalType": "address",
          "name": "",
          "type": "address"
        }
      ],
      "name": "ownerApproved",
      "outputs": [
        {
          "internalType": "bool",
          "name": "",
          "type": "bool"
        }
      ],
      "stateMutability": "view",
      "type": "function"
    },
    {
      "inputs": [
        {
          "internalType": "uint256",
          "name": "",
          "type": "uint256"
        }
      ],
      "name": "owners",
      "outputs": [
        {
          "internalType": "address",
          "name": "",
          "type": "address"
        }
      ],
      "stateMutability": "view",
      "type": "function"
    },
    {
      "inputs": [
        {
          "internalType": "address",
          "name": "_to",
          "type": "address"
        },
        {
          "internalType": "uint256",
          "name": "_valueSent",
          "type": "uint256"
        },
        {
          "internalType": "bytes",
          "name": "_data",
          "type": "bytes"
        }
      ],
      "name": "submitTransaction",
      "outputs": [],
      "stateMutability": "nonpayable",
      "type": "function"
    },
    {
      "inputs": [
        {
          "internalType": "uint256",
          "name": "",
          "type": "uint256"
        }
      ],
      "name": "transactionHistory",
      "outputs": [
        {
          "internalType": "address",
          "name": "to",
          "type": "address"
        },
        {
          "internalType": "uint256",
          "name": "value",
          "type": "uint256"
        },
        {
          "internalType": "bytes",
          "name": "data",
          "type": "bytes"
        },
        {
          "internalType": "bool",
          "name": "executed",
          "type": "bool"
        }
      ],
      "stateMutability": "view",
      "type": "function"
    },
    {
      "inputs": [],
      "name": "votesRequired",
      "outputs": [
        {
          "internalType": "uint256",
          "name": "",
          "type": "uint256"
        }
      ],
      "stateMutability": "view",
      "type": "function"
    },
    {
      "stateMutability": "payable",
      "type": "receive"
    }
  ],
  "bytecode": "0x60806040523480156200001157600080fd5b50604051620018dd380380620018dd833981810160405281019062000037919062000447565b60008251116200007e576040517f08c379a0000000000000000000000000000000000000000000000000000000008152600401620000759062000534565b60405180910390fd5b60005b82518110156200020e576000838281518110620000a357620000a262000556565b5b60200260200101519050600160008273ffffffffffffffffffffffffffffffffffffffff1673ffffffffffffffffffffffffffffffffffffffff16815260200190815260200160002060009054906101000a900460ff16156200013d576040517f08c379a00000000000000000000000000000000000000000000000000000000081526004016200013490620005d5565b60405180910390fd5b60018060008373ffffffffffffffffffffffffffffffffffffffff1673ffffffffffffffffffffffffffffffffffffffff16815260200190815260200160002060006101000a81548160ff0219169083151502179055506000819080600181540180825580915050600190039060005260206000200160009091909190916101000a81548173ffffffffffffffffffffffffffffffffffffffff021916908373ffffffffffffffffffffffffffffffffffffffff160217905550508080620002059062000626565b91505062000081565b5080600281905550505062000673565b6000604051905090565b600080fd5b600080fd5b600080fd5b6000601f19601f8301169050919050565b7f4e487b7100000000000000000000000000000000000000000000000000000000600052604160045260246000fd5b620002828262000237565b810181811067ffffffffffffffff82111715620002a457620002a362000248565b5b80604052505050565b6000620002b96200021e565b9050620002c7828262000277565b919050565b600067ffffffffffffffff821115620002ea57620002e962000248565b5b602082029050602081019050919050565b600080fd5b600073ffffffffffffffffffffffffffffffffffffffff82169050919050565b60006200032d8262000300565b9050919050565b6200033f8162000320565b81146200034b57600080fd5b50565b6000815190506200035f8162000334565b92915050565b60006200037c6200037684620002cc565b620002ad565b90508083825260208201905060208402830185811115620003a257620003a1620002fb565b5b835b81811015620003cf5780620003ba88826200034e565b845260208401935050602081019050620003a4565b5050509392505050565b600082601f830112620003f157620003f062000232565b5b81516200040384826020860162000365565b91505092915050565b6000819050919050565b62000421816200040c565b81146200042d57600080fd5b50565b600081519050620004418162000416565b92915050565b6000806040838503121562000461576200046062000228565b5b600083015167ffffffffffffffff8111156200048257620004816200022d565b5b6200049085828601620003d9565b9250506020620004a38582860162000430565b9150509250929050565b600082825260208201905092915050565b7f4d756c7469736967206d7573742068617665206174206c65617374206f6e652060008201527f6f776e6572210000000000000000000000000000000000000000000000000000602082015250565b60006200051c602683620004ad565b91506200052982620004be565b604082019050919050565b600060208201905081810360008301526200054f816200050d565b9050919050565b7f4e487b7100000000000000000000000000000000000000000000000000000000600052603260045260246000fd5b7f4f776e657220616c726561647920657869737473210000000000000000000000600082015250565b6000620005bd601583620004ad565b9150620005ca8262000585565b602082019050919050565b60006020820190508181036000830152620005f081620005ae565b9050919050565b7f4e487b7100000000000000000000000000000000000000000000000000000000600052601160045260246000fd5b600062000633826200040c565b91507fffffffffffffffffffffffffffffffffffffffffffffffffffffffffffffffff8203620006685762000667620005f7565b5b600182019050919050565b61125a80620006836000396000f3fe60806040526004361061008a5760003560e01c8063243e7a8711610059578063243e7a87146101645780632f54bf6e146101a4578063c6427474146101e1578063d0e30db01461020a578063ee22610b1461021457610091565b8063025e7c2714610096578063089d144c146100d35780630c2891b714610110578063242232d11461013b57610091565b3661009157005b600080fd5b3480156100a257600080fd5b506100bd60048036038101906100b89190610aa5565b61023d565b6040516100ca9190610b13565b60405180910390f35b3480156100df57600080fd5b506100fa60048036038101906100f59190610b5a565b61027c565b6040516101079190610bb5565b60405180910390f35b34801561011c57600080fd5b506101256102ab565b6040516101329190610bdf565b60405180910390f35b34801561014757600080fd5b50610162600480360381019061015d9190610aa5565b6102b1565b005b34801561017057600080fd5b5061018b60048036038101906101869190610aa5565b6103a9565b60405161019b9493929190610c93565b60405180910390f35b3480156101b057600080fd5b506101cb60048036038101906101c69190610cdf565b61049e565b6040516101d89190610bb5565b60405180910390f35b3480156101ed57600080fd5b5061020860048036038101906102039190610d71565b6104be565b005b610212610689565b005b34801561022057600080fd5b5061023b60048036038101906102369190610aa5565b61068b565b005b6000818154811061024d57600080fd5b906000526020600020016000915054906101000a900473ffffffffffffffffffffffffffffffffffffffff1681565b60036020528160005260406000206020528060005260406000206000915091509054906101000a900460ff1681565b60025481565b600160003373ffffffffffffffffffffffffffffffffffffffff1673ffffffffffffffffffffffffffffffffffffffff16815260200190815260200160002060009054906101000a900460ff1661033d576040517f08c379a000000000000000000000000000000000000000000000000000000000815260040161033490610e42565b60405180910390fd5b60016003600083815260200190815260200160002060003373ffffffffffffffffffffffffffffffffffffffff1673ffffffffffffffffffffffffffffffffffffffff16815260200190815260200160002060006101000a81548160ff02191690831515021790555050565b600481815481106103b957600080fd5b90600052602060002090600402016000915090508060000160009054906101000a900473ffffffffffffffffffffffffffffffffffffffff169080600101549080600201805461040890610e91565b80601f016020809104026020016040519081016040528092919081815260200182805461043490610e91565b80156104815780601f1061045657610100808354040283529160200191610481565b820191906000526020600020905b81548152906001019060200180831161046457829003601f168201915b5050505050908060030160009054906101000a900460ff16905084565b60016020528060005260406000206000915054906101000a900460ff1681565b600160003373ffffffffffffffffffffffffffffffffffffffff1673ffffffffffffffffffffffffffffffffffffffff16815260200190815260200160002060009054906101000a900460ff1661054a576040517f08c379a000000000000000000000000000000000000000000000000000000000815260040161054190610e42565b60405180910390fd5b600460405180608001604052808673ffffffffffffffffffffffffffffffffffffffff16815260200185815260200184848080601f016020809104026020016040519081016040528093929190818152602001838380828437600081840152601f19601f82011690508083019250505050505050815260200160001515815250908060018154018082558091505060019003906000526020600020906004020160009091909190915060008201518160000160006101000a81548173ffffffffffffffffffffffffffffffffffffffff021916908373ffffffffffffffffffffffffffffffffffffffff1602179055506020820151816001015560408201518160020190805190602001906106609291906109c2565b5060608201518160030160006101000a81548160ff021916908315150217905550505050505050565b565b8060048054905081106106d3576040517f08c379a00000000000000000000000000000000000000000000000000000000081526004016106ca90610f0e565b60405180910390fd5b81600481815481106106e8576106e7610f2e565b5b906000526020600020906004020160030160009054906101000a900460ff1615610747576040517f08c379a000000000000000000000000000000000000000000000000000000000815260040161073e90610fa9565b60405180910390fd5b600254610753846108e4565b1015610794576040517f08c379a000000000000000000000000000000000000000000000000000000000815260040161078b90611015565b60405180910390fd5b6000600484815481106107aa576107a9610f2e565b5b9060005260206000209060040201905060018160030160006101000a81548160ff02191690831515021790555060008160000160009054906101000a900473ffffffffffffffffffffffffffffffffffffffff1673ffffffffffffffffffffffffffffffffffffffff1682600101548360020160405161082a91906110d4565b60006040518083038185875af1925050503d8060008114610867576040519150601f19603f3d011682016040523d82523d6000602084013e61086c565b606091505b50509050806108b0576040517f08c379a00000000000000000000000000000000000000000000000000000000081526004016108a790611137565b60405180910390fd5b847fae30dc3f11bb6b178aafe5e7fc568fb6d87200068a944a8015c0db1b4533dbb860405160405180910390a25050505050565b600080600090505b6000805490508110156109bc5760036000848152602001908152602001600020600080838154811061092157610920610f2e565b5b9060005260206000200160009054906101000a900473ffffffffffffffffffffffffffffffffffffffff1673ffffffffffffffffffffffffffffffffffffffff1673ffffffffffffffffffffffffffffffffffffffff16815260200190815260200160002060009054906101000a900460ff16156109a9576001826109a69190611186565b91505b80806109b4906111dc565b9150506108ec565b50919050565b8280546109ce90610e91565b90600052602060002090601f0160209004810192826109f05760008555610a37565b82601f10610a0957805160ff1916838001178555610a37565b82800160010185558215610a37579182015b82811115610a36578251825591602001919060010190610a1b565b5b509050610a449190610a48565b5090565b5b80821115610a61576000816000905550600101610a49565b5090565b600080fd5b600080fd5b6000819050919050565b610a8281610a6f565b8114610a8d57600080fd5b50565b600081359050610a9f81610a79565b92915050565b600060208284031215610abb57610aba610a65565b5b6000610ac984828501610a90565b91505092915050565b600073ffffffffffffffffffffffffffffffffffffffff82169050919050565b6000610afd82610ad2565b9050919050565b610b0d81610af2565b82525050565b6000602082019050610b286000830184610b04565b92915050565b610b3781610af2565b8114610b4257600080fd5b50565b600081359050610b5481610b2e565b92915050565b60008060408385031215610b7157610b70610a65565b5b6000610b7f85828601610a90565b9250506020610b9085828601610b45565b9150509250929050565b60008115159050919050565b610baf81610b9a565b82525050565b6000602082019050610bca6000830184610ba6565b92915050565b610bd981610a6f565b82525050565b6000602082019050610bf46000830184610bd0565b92915050565b600081519050919050565b600082825260208201905092915050565b60005b83811015610c34578082015181840152602081019050610c19565b83811115610c43576000848401525b50505050565b6000601f19601f8301169050919050565b6000610c6582610bfa565b610c6f8185610c05565b9350610c7f818560208601610c16565b610c8881610c49565b840191505092915050565b6000608082019050610ca86000830187610b04565b610cb56020830186610bd0565b8181036040830152610cc78185610c5a565b9050610cd66060830184610ba6565b95945050505050565b600060208284031215610cf557610cf4610a65565b5b6000610d0384828501610b45565b91505092915050565b600080fd5b600080fd5b600080fd5b60008083601f840112610d3157610d30610d0c565b5b8235905067ffffffffffffffff811115610d4e57610d4d610d11565b5b602083019150836001820283011115610d6a57610d69610d16565b5b9250929050565b60008060008060608587031215610d8b57610d8a610a65565b5b6000610d9987828801610b45565b9450506020610daa87828801610a90565b935050604085013567ffffffffffffffff811115610dcb57610dca610a6a565b5b610dd787828801610d1b565b925092505092959194509250565b600082825260208201905092915050565b7f43616c6c6572206973206e6f7420616e206f776e657221000000000000000000600082015250565b6000610e2c601783610de5565b9150610e3782610df6565b602082019050919050565b60006020820190508181036000830152610e5b81610e1f565b9050919050565b7f4e487b7100000000000000000000000000000000000000000000000000000000600052602260045260246000fd5b60006002820490506001821680610ea957607f821691505b602082108103610ebc57610ebb610e62565b5b50919050565b7f5472616e73616374696f6e20646f6573206e6f74206578697374000000000000600082015250565b6000610ef8601a83610de5565b9150610f0382610ec2565b602082019050919050565b60006020820190508181036000830152610f2781610eeb565b9050919050565b7f4e487b7100000000000000000000000000000000000000000000000000000000600052603260045260246000fd5b7f5472616e73616374696f6e20616c726561647920657865637574656421000000600082015250565b6000610f93601d83610de5565b9150610f9e82610f5d565b602082019050919050565b60006020820190508181036000830152610fc281610f86565b9050919050565b7f496e73756666696369656e74206e756d626572206f6620617070726f76616c73600082015250565b6000610fff602083610de5565b915061100a82610fc9565b602082019050919050565b6000602082019050818103600083015261102e81610ff2565b9050919050565b600081905092915050565b60008190508160005260206000209050919050565b6000815461106281610e91565b61106c8186611035565b945060018216600081146110875760018114611098576110cb565b60ff198316865281860193506110cb565b6110a185611040565b60005b838110156110c3578154818901526001820191506020810190506110a4565b838801955050505b50505092915050565b60006110e08284611055565b915081905092915050565b7f5472616e73616374696f6e206661696c65642100000000000000000000000000600082015250565b6000611121601383610de5565b915061112c826110eb565b602082019050919050565b6000602082019050818103600083015261115081611114565b9050919050565b7f4e487b7100000000000000000000000000000000000000000000000000000000600052601160045260246000fd5b600061119182610a6f565b915061119c83610a6f565b9250827fffffffffffffffffffffffffffffffffffffffffffffffffffffffffffffffff038211156111d1576111d0611157565b5b828201905092915050565b60006111e782610a6f565b91507fffffffffffffffffffffffffffffffffffffffffffffffffffffffffffffffff820361121957611218611157565b5b60018201905091905056fea2646970667358221220ea883addc489f7378b341ca21f53eed06b71539d6bd305c8abfde8fdd156145264736f6c634300080d0033",
  "linkReferences": {},
  "deployedLinkReferences": {}
}